:020000000528D1
:08000800152A8316F4300508E7
:10001000AE3086008312F4308500BE308600831631
:10002000DF30810020308B0083129D01031A1A28D3
:10003000FE20061203168510861F1B280510861E3B
:100040001E280613061D212864000A301D236400A3
:10005000763A0319CF281A301D236400673A031932
:100060009D1464008B171D193728861816219D1DB5
:1000700046288B138B1B3928442264009700013AD1
:10008000031948281708083A031923238B17312826
:100090008B138B1B48289D1C54286400003088005B
:1000A0001A3089000B239D1064007B218514861B68
:1000B00056280514861A59281D1506128B17FF306D
:1000C00096009F01A00164002008063C031C5421F7
:1000D0009D1963289D196328960B6A289F01A0012A
:1000E00064008B172008323C031C9728861886284A
:1000F0009D1D70288B138B1B7A286400442264009A
:10010000013A0319BF288B17702885288B138B1B86
:100110008628861C8D28640089289F01A001640020
:100120008B17861886282008373C03188F289F01D4
:10013000A00107309E006400861886289D1DA9280E
:100140008B138B1BA028640044226400013A03191E
:1001500048288B1720081E020318B32820081E3CCD
:100160009E0A6400FE202008253C03189B28851069
:10017000861FB7280510861EBA281D113128640075
:10018000763088000A3089000B23C821323096006F
:100190006400BB22023A031DC828960BC8288514A8
:1001A000861BCF280514861AD22806168B138B1BA4
:1001B000D6286400C830FC39073C99009909990C8D
:1001C000990C0000990BE128BB22003A031DD928A5
:1001D0006400442264009700013A0319F5281708C7
:1001E000083A03192323D9286400003088000A3014
:1001F00089000B2306128B174828FD288B138B1BB5
:10020000FE2805309700FF3096000614173099003D
:10021000990B0829061017309900990B0D29960B98
:100220000529970B052964008B1708008B138B1B7E
:1002300016296400673088001A3089000B23640097
:100240001B301D2364008800880A1B3089000B23A3
:1002500064009F01A0011D158B178B176400061702
:1002600006162A23061264009D1942292A236400D7
:10027000061306122A2364007830200203184D2941
:100280009D1D2D298B138B1B42296400BB22442208
:100290006400013A031D2D297B219D141D1164006A
:1002A0000613061D50290800FE2006128B138B1B17
:1002B000562964009A011B3088001D239A009A0871
:1002C00003196C2964002A23061664002A230612E7
:1002D00064002A239A0B622964002A2364002A23DB
:1002E00064002A236400003088001B3089000B233F
:1002F00064008B17080003309700EB306400960011
:10030000061427309900990B83290610273099008D
:10031000990B8829960B8029970B7E29033097002B
:10032000EB3064009600061423309900990B96294F
:10033000061023309900990B9B29960B9329970B54
:10034000912907309700733064009600061420301E
:100350009900990BA929061020309900990BAE2914
:10036000960BA629970BA4290F309700AF30640095
:10037000960006141E309900990BBC2906101E30F9
:100380009900990BC129960BB929970BB729080039
:1003900007309700D7306400960006141E3099008D
:1003A000990BD02906101E309900990BD529960B70
:1003B000CD29970BCB290730970073306400960046
:1003C000061420309900990BE3290610203099007B
:1003D000990BE829960BE029970BDE29033097004B
:1003E000EB3064009600061423309900990BF6292F
:1003F000061023309900990BFB29960BF329970BD4
:10040000F12903309700EB30640096000614273082
:100410009900990B092A061027309900990B0E2A8A
:10042000960B062A970B042A0800A200A20E030EC0
:10043000A100BB22003A9D1103199D151D193B2AED
:100440009B0A031D3E2A9C0A9D1C2B2A0612013082
:100450001C060319061603301C0203180616053085
:100460001C02031C352A06129C018101210E830007
:10047000220E0B1109009F0A0319A00A8101210E07
:100480008300220E0B1109008B1387226322E822BE
:1004900013089806031DFD3400305422013A031955
:1004A00001341030542208009400083096000C30BB
:1004B000840014081D230006031D0834840A940ACE
:1004C000960B592A0134083095000C3084009A01AB
:1004D0000830960085156C2A851101309900990B1A
:1004E0006F2A0310051903149A0C5030FC39073C8D
:1004F00099009909990C990C0000990B7C2A960B8C
:100500006A2A1A088000840A950B672A08000030BE
:100510009A000830960003109A0C031C912A952229
:10052000922AA422960B8C2A08008515972A982ACD
:1005300085115030FC39073C99009909990C990CA8
:100540000000990BA02A080085153230FC39073CC1
:1005500099009909990C990C0000990BAC2A851106
:100560000C30FC39073C99009909990C990C000052
:10057000990BB72A08008515FA30FC39073C990019
:100580009909990C990C0000990BC32A0330990022
:10059000990BC82A851105309900990BCD2A051DA4
:1005A00001342330FC39073C99009909990C990CC6
:1005B0000000990BD82A05190234FA30FC39073C9F
:1005C00099009909990C990C0000990BE42A0034C0
:1005D000950198019701073096000C3084000008BF
:1005E0009400F7221808840A960BEF2A0800970057
:1005F00094000830950018089406940C0318183AD3
:100600009800980C0310970C03189717170894007C
:10061000950BFB2A080083168B138B1B0C2B0815DC
:1006200055308900AA30890088148818152B881D38
:100630001B2B8312013483120034890083160814A3
:10064000831208080800463096002A236400960B9F
:10065000252B0800970050309400FF3095000000D3
:0C066000950B2F2B940B2D2B1708080076
:104200000100B300EA009600000000000000EC008E
:10421000000000000000000000000000000000009E
:104220000100370036009000010000000000070088
:104230000000000067000100000000000000000016
:00000001FF
