:02000000E52AEF
:080008008B130B1C3928051CA9
:10001000102844235E10FF3903195E14850839281F
:100020005F1A1E28DE182A28DF1B24288519382885
:100030008E018F011014DF178514392885088E0171
:1000400048308F0010143928851D39288510572213
:10005000DF133928DE19C2215E1B7521DE1A262125
:100060005E19A7205E1A0B22DE1B4B208510392853
:1000700039280C1C472885145F1A4328DE10DF122C
:1000800010100C104728DF12DE1010105F12F8302D
:100090008B058B17090010100E08B1000F08B00077
:1000A0008E018F0110140310B10DB00DB10DB00D04
:1000B0005F1869288519A6280830B002031CA028FB
:1000C0000630B002B30DB40DB50DB60DB20BA628B7
:1000D00084288519A0282030B002031CA0280730EE
:1000E000B002031C7E281A30B002031CA0280E3078
:1000F000B0020318A0285F105F11A6285F10DF1A56
:1001000084281010DE10A6281010DF16DE104E30E6
:10011000A20029236D234330A20029236D23360832
:10012000A20029236D233508A20029236D2334085A
:10013000A20029236D233308A20029236D23080080
:10014000DF128E0148308F0010145F160800101067
:100150000E08B1000F08B0008E018F0110140310BB
:10016000B10DB00DB10DB00D5F18DA288519252934
:100170000830B002031C20290630B002DF1103183A
:10018000DF15BA0BC6285F11DF1D5F155F1DCA287A
:100190000830DF060310DF190314B30DB40D3B085C
:1001A0003206031DD72833083C06031D2029B20B55
:1001B00025290529851920290830B002031C20298A
:1001C0000630B002031CFA280A30B002031C2029B2
:1001D0000730B002031820290530BA000E30B200F3
:1001E0000314B30DB40D0B30BB001030BC005F1016
:1001F0005F1125290330BA005F105F110B30B20088
:100200000A30BB000230BC0025291010DE1053302C
:10021000A20029236D234830A20029236D235030EA
:10022000A20029236D233030A20029236D23340836
:10023000A20029236D233308A20029236D2308007F
:100240008E0148308F0010145F16080010100E0841
:10025000B1000F08B0008E018F0110140310B10D12
:10026000B00DB10DB00D5F18462985197429053000
:10027000B002031C6D290A30B002B30DB40DB50DE8
:10028000B60DB70DB80DB20B7429522985196D2919
:100290001830B002031C6D290730B00203186D2915
:1002A0005F1074291010DE103808A20029236D2376
:1002B0003708A20029236D233608A20029236D23C5
:1002C0003508A20029236D233408A20029236D23B9
:1002D0003308A20029236D230800DE105F108E0171
:1002E00048308F0010145F16080010100E08B1007F
:1002F0000F08B0008E018F0110140310B10DB00D66
:10030000B10DB00D5F1893298519C1290530B002D0
:10031000031CBA290A30B002B30DB40DB50DB60DE9
:10032000B20BC1299F298519BA294130B002031C9B
:10033000BA290E30B0020318BA295F10C129101073
:10034000DE104D30A20029236D234230A200292364
:100350006D233608A20029236D233508A200292326
:100360006D233408A20029236D233308A20029231A
:100370006D230800DE105F108E0148308F001014CE
:100380005F16080010100E08B1000F08B0008E01B3
:100390008F0110140310B10DB00DB10DB00D0B3065
:1003A000B002031C042A0630B002031CD829DB2942
:1003B000DF18DE29E029DF18E029042ADF100A2AE5
:1003C0000314DF14851DE5290310B30DB40DB20B22
:1003D0000A2A1010DE105230A20029236D23433068
:1003E000A20029236D233530A20029236D2330304C
:1003F000A20029236D233408A20029236D2333088A
:10040000A20029236D230800DE108E0148308F00E2
:1004100010145F160800851D562A10100E08B10032
:100420000F08B0008E018F0110140310B10DB00D34
:100430000730B002031C502A0630B002031C262AE3
:100440000530B002031C252A502A0314B30CB40C47
:10045000B20B562ADE1010100310B30CB40C0310AC
:10046000B30CB40C0310B30CB40C0310B40C533025
:10047000A20029236D234930A20029236D23523085
:10048000A20029236D234330A20029236D233308C2
:10049000A20029236D233408A20029236D23562AA4
:1004A000DE108E0148308F0010145F160800101007
:1004B0000E08B1000F08B0008E018F011014031058
:1004C000B10DB00D0310B10DB00D0430B002031C1E
:1004D000DC2A0430B002031C962A0430B002031C4C
:1004E000DC2A0530B002031CA02A0F30B002031C26
:1004F000DC2A0C30B002031CAC2A0430B002031C0E
:10050000DC2A0E30B002031CB52A0430B002031CF2
:10051000DC2A0C30B002031CC52A2F30B002031CA9
:10052000DC2A2030B002031CD32ADC2ADF125F143D
:10053000DE140330DE055E15B301B401DF130800DD
:10054000DF12DF100D30B200DE140330DE05DE15E1
:10055000B301B401DF130800DF120C30B200DE1467
:100560000330DE055E16DF130800DF125F14303043
:10057000B200DE140330DE05DE16B301B401B501AE
:10058000B601B701B801DF130800DF125F14203095
:10059000B200DE140330DE055E17B301B401B5010D
:1005A000B601DF1308005F142030B200DE14033000
:1005B000DE05DE17DF130800DE10DF128E01483083
:1005C0008F0010145F16DF130800850107309900B3
:1005D0008316393085003B30950081130930960031
:1005E0008B150B170C14FF23900083129001DE0172
:1005F0008501851DF92A85080518FC2A8508F8302B
:100600008B058B175E10DE10DF13202BC001C1019C
:10061000C201C20A5E1C282B5E1049302306031D4E
:10062000062B5E1C192B5E10523023060319202B5B
:10063000112BC00B1E2BC10B1E2BC20B112B062B1B
:100640004F30A20029236D234B30A20029236D23B4
:10065000062B05152030A500A50B2C2B0830A0007B
:100660000310A20C031C0515031805111F30A5006B
:10067000A50B382B0000A00B302B00000000000061
:1006800000000000051108000D30A600A60B462B47
:10069000051C622B0830A000000000002030A600DE
:1006A000A60B502B03108514051C0314A30C8510F6
:1006B000A00B4E2B2030A6000000A60B5D2B0518CA
:1006C000622B0034FF34FF30A800FF30A900000087
:1006D000A90B672BA80B652B08002830A900A90BD4
:0406E0006F2B080074
:02400E00C431BB
:00000001FF
